:020000040800F2
:10000000000002206D1F0008A51A0008A71A0008AA
:10001000A91A0008AB1A0008AD1A00080000000079
:10002000000000000000000000000000A17B0008AC
:10003000AF1A000800000000417C0008A57C000801
:10004000BD1F0008BD1F0008BD1F0008BD1F000820
:10005000BD1F0008BD1F0008BD1F0008BD1F000810
:10006000BD1F0008BD1F0008BD1F0008B11A000811
:10007000BD1F0008BD1F0008BD1F0008BD1F0008F0
:10008000C11A0008BD1F0008BD1F0008BD1F0008E1
:10009000D11A0008BD1F0008BD1F0008BD1F0008C1
:1000A000BD1F0008BD1F0008BD1F0008BD1F0008C0
:1000B000BD1F0008BD1F0008E11A0008BD1F000891
:1000C000BD1F0008BD1F0008BD1F0008BD1F0008A0
:1000D000BD1F0008F11A0008BD1F0008BD1F000861
:1000E000BD1F0008BD1F0008BD1F0008BD1F000880
:1000F000BD1F0008BD1F0008BD1F0008BD1F000870
:10010000BD1F0008BD1F0008BD1F0008BD1F00085F
:10011000BD1F0008011B0008BD1F0008BD1F00080F
:10012000BD1F0008BD1F0008111B0008BD1F0008EF
:10013000BD1F00080000000000000000BD1F0008F7
:10014000211B0008BD1F0008BD1F0008311B00084F
:10015000BD1F0008BD1F0008BD1F0008BD1F00080F
:10016000BD1F0008BD1F0008BD1F0008BD1F0008FF
:10017000BD1F0008BD1F0008BD1F000800000000D3
:1001800000000000BD1F000800000000000000008B
:10019000BD1F00080000000000000000BD1F000897
:1001A000000000000000000000000000BD1F00086B
:1001B000BD1F0008BD1F0008BD1F0008BD1F0008AF
:0401C000BD1F000857
:1001D00010B5054C237833B9044B13B10448AFF381
:1001E00000800123237010BD1808002000000000CB
:1001F000A827010808B5034B1BB103490348AFF317
:10020000008008BD000000001C080020A82701088D
:1002100081F0004102E000BF83F0004330B54FEAB7
:1002200041044FEA430594EA050F08BF90EA020F24
:100230001FBF54EA000C55EA020C7FEA645C7FEAB7
:10024000655C00F0E2804FEA5454D4EB5555B8BFDA
:100250006D420CDD2C4480EA020281EA030382EA4B
:10026000000083EA010180EA020281EA0303362DDD
:1002700088BF30BD11F0004F4FEA01314FF4801CB0
:100280004CEA113102D0404261EB410113F0004FC2
:100290004FEA03334CEA133302D0524263EB430379
:1002A00094EA050F00F0A780A4F10104D5F1200E17
:1002B0000DDB02FA0EFC22FA05F2801841F1000172
:1002C00003FA0EF2801843FA05F359410EE0A5F146
:1002D00020050EF1200E012A03FA0EFC28BF4CF077
:1002E000020C43FA05F3C01851EBE37101F000452D
:1002F00007D54FF0000EDCF1000C7EEB00006EEB3A
:100300000101B1F5801F1BD3B1F5001F0CD34908C3
:100310005FEA30004FEA3C0C04F101044FEA44521A
:1003200012F5800F80F09A80BCF1004F08BF5FEAA1
:10033000500C50F1000041EB045141EA050130BD81
:100340005FEA4C0C404141EB0101013C28BFB1F593
:10035000801FE9D291F0000F04BF01460020B1FADE
:1003600081F308BF2033A3F10B03B3F120020CDAB1
:100370000C3208DD02F1140CC2F10C0201FA0CF08F
:1003800021FA02F10CE002F11402D8BFC2F1200CF4
:1003900001FA02F120FA0CFCDCBF41EA0C019040AA
:1003A000E41AA2BF01EB0451294330BD6FEA0404F3
:1003B0001F3C1CDA0C340EDC04F11404C4F12002DE
:1003C00020FA04F001FA02F340EA030021FA04F3F0
:1003D00045EA030130BDC4F10C04C4F1200220FA47
:1003E00002F001FA04F340EA0300294630BD21FA85
:1003F00004F0294630BD94F0000F83F4801306BF4B
:1004000081F480110134013D4EE77FEA645C18BF3E
:100410007FEA655C29D094EA050F08BF90EA020FD5
:1004200005D054EA000C04BF1946104630BD91EACD
:10043000030F1EBF0021002030BD5FEA545C05D1D0
:100440004000494128BF41F0004130BD14F580040F
:100450003CBF01F5801130BD01F0004545F0FE4183
:1004600041F470014FF0000030BD7FEA645C1ABFB8
:10047000194610467FEA655C1CBF0B46024650EAEF
:10048000013406BF52EA033591EA030F41F400211B
:1004900030BD00BF90F0000F04BF0021704730B5A1
:1004A0004FF4806404F132044FF000054FF0000176
:1004B00050E700BF90F0000F04BF0021704730B537
:1004C0004FF4806404F1320410F0004548BF40420C
:1004D0004FF000013EE700BF42004FEAE2014FEA61
:1004E00031014FEA02701FBF12F07F4393F07F4F3C
:1004F00081F06051704732F07F4208BF704793F03F
:100500007F4F04BF41F40021704730B54FF4607451
:1005100001F0004521F000411CE700BF50EA010254
:1005200008BF704730B54FF000050AE050EA0102FD
:1005300008BF704730B511F0004502D5404261EB6D
:1005400041014FF4806404F132045FEA915C3FF4AE
:10055000D8AE4FF003025FEADC0C18BF03325FEA4B
:10056000DC0C18BF033202EBDC02C2F1200300FAFC
:1005700003FC20FA02F001FA03FE40EA0E0021FA21
:1005800002F11444BDE600BF70B54FF0FF0C4CF40F
:10059000E06C1CEA11541DBF1CEA135594EA0C0FC1
:1005A00095EA0C0F00F0DEF82C4481EA030621EAFC
:1005B0004C5123EA4C5350EA013518BF52EA033537
:1005C00041F4801143F4801338D0A0FB02CE4FF0E9
:1005D0000005E1FB02E506F00042E0FB03E54FF019
:1005E0000006E1FB03569CF0000F18BF4EF0010E11
:1005F000A4F1FF04B6F5007F64F5407404D25FEA0D
:100600004E0E6D4146EB060642EAC62141EA5551BF
:100610004FEAC52040EA5E504FEACE2EB4F1FD0C01
:1006200088BFBCF5E06F1ED8BEF1004F08BF5FEA7F
:10063000500E50F1000041EB045170BD06F0004631
:1006400046EA010140EA020081EA0301B4EB5C04DE
:10065000C2BFD4EB0C0541EA045170BD41F48011D6
:100660004FF0000E013C00F3AB8014F1360FDEBFFB
:10067000002001F0004170BDC4F10004203C35DAD7
:100680000C341BDC04F11404C4F1200500FA05F35A
:1006900020FA04F001FA05F240EA020001F00042FB
:1006A00021F0004110EBD37021FA04F642EB060171
:1006B0005EEA430E08BF20EAD37070BDC4F10C049B
:1006C000C4F1200500FA04F320FA05F001FA04F25F
:1006D00040EA020001F0004110EBD37041F100014B
:1006E0005EEA430E08BF20EAD37070BDC4F1200556
:1006F00000FA05F24EEA020E20FA04F301FA05F2BE
:1007000043EA020321FA04F001F0004121FA04F265
:1007100020EA020000EBD3705EEA430E08BF20EA35
:10072000D37070BD94F0000F0FD101F0004640006F
:1007300041EB010111F4801F08BF013CF7D041EAF1
:10074000060195F0000F18BF704703F000465200F5
:1007500043EB030313F4801F08BF013DF7D043EAC6
:100760000603704794EA0C0F0CEA135518BF95EA7C
:100770000C0F0CD050EA410618BF52EA4306D1D103
:1007800081EA030101F000414FF0000070BD50EA22
:10079000410606BF1046194652EA430619D094EAAC
:1007A0000C0F02D150EA013613D195EA0C0F05D196
:1007B00052EA03361CBF104619460AD181EA0301EA
:1007C00001F0004141F0FE4141F470014FF00000A2
:1007D00070BD41F0FE4141F4780170BD70B54FF03D
:1007E000FF0C4CF4E06C1CEA11541DBF1CEA1355BD
:1007F00094EA0C0F95EA0C0F00F0A7F8A4EB05049F
:1008000081EA030E52EA03354FEA013100F0888095
:100810004FEA03334FF0805545EA131343EA12635E
:100820004FEA022245EA111545EA10654FEA002613
:100830000EF000419D4208BF964244F1FD0404F5CC
:10084000407402D25B084FEA3202B61A65EB030528
:100850005B084FEA32024FF480104FF4002CB6EBE5
:10086000020E75EB030E22BFB61A754640EA0C0065
:100870005B084FEA3202B6EB020E75EB030E22BFA5
:10088000B61A754640EA5C005B084FEA3202B6EBE6
:10089000020E75EB030E22BFB61A754640EA9C00A5
:1008A0005B084FEA3202B6EB020E75EB030E22BF75
:1008B000B61A754640EADC0055EA060E18D04FEA33
:1008C000051545EA16754FEA06164FEAC30343EAD3
:1008D00052734FEAC2025FEA1C1CC0D111F4801FA0
:1008E0000BD141EA00014FF000004FF0004CB6E799
:1008F00011F4801F04BF01430020B4F1FD0C88BF38
:10090000BCF5E06F3FF6AFAEB5EB030C04BFB6EB42
:10091000020C5FEA500C50F1000041EB045170BD35
:100920000EF0004E4EEA113114EB5C04C2BFD4EB62
:100930000C0541EA045170BD41F480114FF0000EE6
:10094000013C90E645EA060E8DE60CEA135594EA62
:100950000C0F08BF95EA0C0F3FF43BAF94EA0C0F65
:100960000AD150EA01347FF434AF95EA0C0F7FF4DA
:1009700025AF104619462CE795EA0C0F06D152EA2E
:1009800003353FF4FDAE1046194622E750EA410612
:1009900018BF52EA43067FF4C5AE50EA41047FF423
:1009A0000DAF52EA43057FF4EBAE12E74FF0FF3C88
:1009B00006E000BF4FF0010C02E000BF4FF0010C59
:1009C0004DF804CD4FEA410C7FEA6C5C4FEA430CD2
:1009D00018BF7FEA6C5C1BD001B050EA410C0CBF21
:1009E00052EA430C91EA030F02BF90EA020F002083
:1009F000704710F1000F91EA030F58BF994208BFEA
:100A000090422CBFD8176FEAE37040F001007047A6
:100A10004FEA410C7FEA6C5C02D150EA013C07D1FD
:100A20004FEA430C7FEA6C5CD6D152EA033CD3D048
:100A30005DF8040B704700BF8446104662468C4642
:100A40001946634600E000BF01B5FFF7B7FF002875
:100A500048BF10F1000F01BD4DF808EDFFF7F4FF9E
:100A60000CBF012000205DF808FB00BF4DF808ED29
:100A7000FFF7EAFF34BF012000205DF808FB00BF4C
:100A80004DF808EDFFF7E0FF94BF012000205DF86E
:100A900008FB00BF4DF808EDFFF7CEFF94BF012023
:100AA00000205DF808FB00BF4DF808EDFFF7C4FF1C
:100AB00034BF012000205DF808FB00BF4FEA410C65
:100AC0007FEA6C5C02D150EA013C0AD14FEA430C48
:100AD0007FEA6C5C02D152EA033C02D14FF0000085
:100AE00070474FF0010070474FEA410212F50012C3
:100AF00015D211D56FF47873B3EB625212D94FEA65
:100B0000C12343F0004343EA505311F0004F23FA4E
:100B100002F018BF404270474FF00000704750EAA3
:100B2000013005D111F0004008BF6FF00040704760
:100B30004FF00000704700BF4FEA4102B2F1E043BE
:100B400024BFB3F5001CDCF1FE5C0DD901F0004CB4
:100B50004FEAC0024CEA5070B2F1004F40EB830004
:100B600008BF20F00100704711F0804F21D113F130
:100B70003872BCBF01F00040704741F480114FEA69
:100B80005252C2F11802C2F1200C10FA0CF320FAF2
:100B900002F018BF40F001004FEAC1234FEAD3230F
:100BA00003FA0CFC40EA0C0023FA02F34FEA430379
:100BB000CCE77FEA625307D150EA01331EBF4FF002
:100BC000FE4040F44000704701F0004040F0FE401D
:100BD00040F40000704700BF80F0004002E000BF1A
:100BE00081F0004142001FBF5FEA410392EA030F18
:100BF0007FEA226C7FEA236C6AD04FEA1262D2EB62
:100C00001363C1BFD218414048404140B8BF5B4266
:100C1000192B88BF704710F0004F40F4000020F0FF
:100C20007F4018BF404211F0004F41F4000121F015
:100C30007F4118BF494292EA030F3FD0A2F101025F
:100C400041FA03FC10EB0C00C3F1200301FA03F19D
:100C500000F0004302D5494260EB4000B0F5000FC0
:100C600013D3B0F1807F06D340084FEA310102F17F
:100C70000102FE2A51D2B1F1004F40EBC25008BF31
:100C800020F0010040EA03007047490040EB0000FB
:100C9000013A28BFB0F5000FEDD2B0FA80FCACF1FC
:100CA000080CB2EB0C0200FA0CF0AABF00EBC25029
:100CB00052421843BCBFD0401843704792F0000F17
:100CC00081F4000106BF80F400000132013BB5E76A
:100CD0004FEA41037FEA226C18BF7FEA236C21D0E0
:100CE00092EA030F04D092F0000F08BF0846704745
:100CF00090EA010F1CBF0020704712F07F4F04D113
:100D0000400028BF40F00040704712F100723CBF25
:100D100000F50000704700F0004343F0FE4040F44F
:100D2000000070477FEA226216BF08467FEA23630D
:100D30000146420206BF5FEA412390EA010F40F4F8
:100D4000800070474FF0000304E000BF10F0004344
:100D500048BF40425FEA000C08BF704743F096432B
:100D600001464FF000001CE050EA010208BF704746
:100D70004FF000030AE000BF50EA010208BF7047CD
:100D800011F0004302D5404261EB41015FEA010CE2
:100D900002BF84460146002043F0B64308BFA3F1DA
:100DA0008053A3F50003BCFA8CF2083AA3EBC253BC
:100DB00010DB01FA02FC634400FA02FCC2F12002DB
:100DC000BCF1004F20FA02F243EB020008BF20F012
:100DD0000100704702F1200201FA02FCC2F1200278
:100DE00050EA4C0021FA02F243EB020008BF20EA6D
:100DF000DC70704753B94AB9002908BF00281CBFEE
:100E00004FF0FF314FF0FF3000F088B9ADF1080C22
:100E10006DE904CE00F006F8DDF804E0DDE9022318
:100E200004B070472DE9F047089D8E460446884679
:100E3000002B4AD18A42174662D9B2FA82F64EB1E5
:100E4000C6F1200301FA06F820FA03F3B74043EA9B
:100E50000808B4404FEA174E1FFA87FCB8FBFEF1B2
:100E6000230C0EFB118843EA084301FB0CF29A4263
:100E700009D9FB1801F1FF3080F0EA809A4240F274
:100E8000E78002393B449A1AA3B2B2FBFEF00EFB94
:100E9000102243EA024300FB0CFC9C4509D9FB18D5
:100EA00000F1FF3280F0D6809C4540F2D3803B4475
:100EB000023840EA0140A3EB0C0300211DB1F340CE
:100EC0000022C5E90032BDE8F0878B4205D90DB19B
:100ED000C5E9000100210846F5E7B3FA83F10029CE
:100EE00046D1734502D3824200F20581841A6EEB2B
:100EF000030201209046002DE5D0C5E90048E2E755
:100F0000002A00F09080B2FA82F6002E40F0A48011
:100F10008A1A030C4FEA174E80B2BCB20121B2FB11
:100F2000FEFC0EFB1C2243EA024304FB0CF29A4235
:100F300007D9FB180CF1FF3802D29A4200F2E08088
:100F4000C4469B1AB3FBFEF20EFB123340EA034386
:100F500002FB04F49C4207D9FB1802F1FF3002D2D5
:100F60009C4200F2CA8002461B1B42EA0C40A5E7E5
:100F7000C1F120068B4022FA06F71F430EFA01F456
:100F800020FA06F32EFA06FE4FEA1749234300FA29
:100F900001F81FFA87FCBEFBF9F01C0C09FB10EEF0
:100FA00044EA0E4400FB0CFEA64502FA01F209D900
:100FB0003C1900F1FF3A80F09C80A64540F29980F0
:100FC00002383C44A4EB0E041FFA83FEB4FBF9F391
:100FD00009FB13444EEA044403FB0CFCA44508D966
:100FE0003C1903F1FF3E80F08280A4457FD9023B8B
:100FF0003C4443EA0040A4EB0C04A0FB02EC644533
:101000007346E14662D35FD05DB1B8EB030264EB97
:10101000090404FA06F622FA01F31E43CC40C5E99E
:10102000006400214FE7B1FBF2FC010C41EA0E41E4
:1010300080B240EA01423B4638463C46B846BE468E
:101040002026B1FBF7F1A2EB080241EA0C4166E76A
:10105000014618E710462CE7C6F120022EFA02F3EB
:10106000B740B14020FA02F24FEA174E0A43B3FBF1
:10107000FEF8BCB20EFB1833110C41EA034108FB29
:1010800004F9B04089454FEA104380B23ED979183F
:1010900008F1FF3C01D289451FD8A1EB0901B1FB42
:1010A000FEF909FB04F80EFB191192B242EA014263
:1010B000424529D2BA1809F1FF31C4D24245C2D201
:1010C000A9F102013A44BEE7F0459DD2BEEB02030E
:1010D0006CEB070C0138E14696E7A7EB0909494498
:1010E000A8F1020CB1FBFEF909FB04F8DBE773463B
:1010F0007FE7504666E70846FDE63B44023A33E7A1
:10110000ACF1020C3B441CE749469CE7A1EB09010A
:10111000C446B1FBFEF909FB04F8C4E7704700BF01
:1011200010F8012B11F8013B012A28BF9A42F7D091
:10113000D01A70470000000000000000000000000E
:1011400001F0FF01102A2BDB10F0070F08D010F878
:10115000013B013A8B422DD010F0070F42B3F6D17C
:10116000F0B441EA012141EA014122F007047FF095
:1011700000070023F0E80256083C85EA010586EAEC
:10118000010685FA47F5A3FA87F586FA47F6A5FA28
:1011900087F68EB9EED1F0BC01F0FF0102F0070234
:1011A00032B110F8013B013A83EA010313B1F8D1DF
:1011B0000020704701387047002D06BF35460338C0
:1011C000073815F0010F07D1013015F4807F02BFF9
:1011D000013015F4C03F0130F0BC0138704700BF4A
:1011E000034613F8012B002AFBD1181A0138704767
:1011F00000B585B000230093019302930393144834
:10120000144A0260436083600361037680F82030F3
:10121000C362114A8262C3600122C26180F8303029
:10122000426100F0A7FF60B9002300930122019200
:1012300002936946064800F0C9FF28B905B05DF879
:1012400004FB00F099FAEFE700F096FAF6E700BF2A
:1012500034080020002001400100000F00B589B0D3
:10126000002303930493059306930793026803F105
:10127000804303F590339A4202D009B05DF804FB35
:101280000021019103F58C335A6C42F480725A6448
:101290005A6C02F480720192019A02911A6B42F028
:1012A00001021A631B6B03F001030293029B1323D9
:1012B00003930323049303A9014801F031FFDCE702
:1012C0000000024008B50E480E4B03600323436044
:1012D00000238360C3604FF4102202614FF40012B8
:1012E00042610376012242768376C37603774377A1
:1012F00001F042F800B908BD00F03EFAFBE700BF7C
:10130000A80800200064004008B50E480E4B03609A
:101310000323436000238360C3604FF41022026103
:101320004FF4001242610376012242768376C3763F
:101330000377437701F020F800B908BD00F01CFAEC
:10134000FBE700BF800800200068004010B58AB0AD
:1013500000230593069307930893099303683F4A74
:10136000934204D03E4A934236D00AB010BD3D4A63
:10137000136801331360012B21D0002401943A4BF0
:101380001A6B42F002021A631B6B03F00203019313
:10139000019B4FF4407305930223069303230893A4
:1013A0000923099305A9314801F0BAFE2246052117
:1013B000142001F02FFC142001F03CFCD5E70023A1
:1013C0000093294B1A6C42F000721A641B6C03F0F4
:1013D00000730093009BD0E700230293224B1A6C0A
:1013E00042F080621A641B6C03F080630293029BDC
:1013F0001C4A136801331360012B21D0002404948C
:10140000194B1A6B42F002021A631B6B03F00203C2
:101410000493049B4FF44053059302230693032344
:1014200008930923099305A9104801F079FE224683
:101430000521402001F0EEFB402001F0FBFB94E78A
:1014400000230393084B1A6C42F000721A641B6C61
:1014500003F000730393039BD0E700BF00640040D8
:10146000006800407C080020003802400004024070
:1014700008B50548054B036001F0E0FB00B908BD65
:1014800000F07AF9FBE700BFD008002000300240EE
:101490000268094B9A4200D0704782B00023019342
:1014A000064B1A6B42F480521A631B6B03F4805391
:1014B0000193019B02B070470030024000380240A7
:1014C00010B582B000240094164B1A6B42F48002CF
:1014D0001A631A6B02F480020092009A01941A6B4C
:1014E00042F400121A631B6B03F400130193019B77
:1014F000224605210B2001F08DFB0B2001F09AFB09
:1015000022460521102001F085FB102001F092FBFE
:10151000224605213A2001F07DFB3A2001F08AFBAA
:1015200002B010BD0038024008B508F00FF80120E5
:1015300006F0C6F9FBE70000034B0360034B0B60AA
:1015400080231360704700BFD80A0020D80800200D
:1015500010B588B00DF1040C074C0FCCACE80F00AF
:1015600094E807008CE80700002101A806F075F94F
:10157000024B186008B010BDC0270108700C002095
:101580002DE9F0418AB0002405940694079408944C
:1015900009940094434B1A6B42F004021A631A6BCD
:1015A00002F004020092009A01941A6B42F0800249
:1015B0001A631A6B02F080020192019A02941A6B6C
:1015C00042F001021A631A6B02F001020292029ABF
:1015D00003941A6B42F002021A631A6B02F00202C1
:1015E0000392039A04941A6B42F008021A631B6B6D
:1015F00003F008030493049B2B4D22464EF68F31D3
:10160000284601F084FE01221021284601F07FFEC9
:10161000264E22462E21304601F079FE4EF69F33AB
:101620000593012706970794089405A9284601F019
:1016300077FD202305930223069307944FF00308B8
:10164000CDF820800723099305A9284601F068FDFD
:101650002E23059306970794089405A9304601F0B8
:101660005FFD402305930694079705A9284601F0DE
:1016700057FD4FF4004305930694079405A90C48C1
:1016800001F04EFD10230593122306930794CDF825
:1016900020800423099305A9304601F041FD0AB0DA
:1016A000BDE8F0810038024000080240000402401A
:1016B0000000024008B50B480B4B03600B4B436026
:1016C00000238360C3604FF4804202614361836101
:1016D000C361036201F02AFE00B908BD00F04CF8B6
:1016E000FBE700BF740C002000540040A0860100FE
:1016F00030B589B0002303930493059306930793B1
:101700000268144B9A4201D009B030BD0025019502
:10171000114C236B43F002032363236B03F002039A
:101720000193019BC0230393122304930323069385
:101730000423079303A9094801F0F2FC0295236CE6
:1017400043F400132364236C03F400130293029BFD
:10175000DAE700BF005400400038024000040240B5
:1017600008B50268034B9A4200D008BD00F042FC65
:10177000FBE700BF0008004072B6FEE700B595B079
:101780003422002107A80CF0C5FE00230293039326
:101790000493059306930093204A116C41F0805105
:1017A0001164126C02F080520092009A01931C4B5B
:1017B0001A6842F440421A601B6803F440430193E4
:1017C000019B012307934FF48033089302230D9369
:1017D0004FF480020E920C220F92A82210921193C5
:1017E00007221292139307A803F0B8F888B90F23C1
:1017F000029303230393002304934FF4A053059310
:101800000693052102A802F0E7FC20B915B05DF8A7
:1018100004FBFFF7B1FFFFF7AFFF00BF0038024046
:101820000070004008B500F0CBFBFFF7A7FFFFF703
:10183000A7FEFFF745FEFFF7DBFCFFF743FDFFF7D1
:1018400063FDFFF737FF00F013F800F033F800F006
:101850002FFA00F047FA00F05FFAFFF709FE00F0F8
:10186000D7F90AF007FDFFF773FE05F0E7FFFEE783
:1018700008B50E480E4B03604FF48273436000239B
:101880008360C360036143614FF400728261082288
:10189000C2610362436283620A23C36203F080FA77
:1018A00000B908BDFFF768FFFBE700BF200D00206F
:1018B0000030014008B50D480D4B03604FF48273B2
:1018C000436000238360C360036143614FF400728F
:1018D0008261C3610362436283620A23C36203F0CD
:1018E0005FFA00B908BDFFF747FFFBE7C80C00200F
:1018F0000038004000B58BB0002305930693079392
:10190000089309930368284A934205D0274A9342D3
:1019100025D00BB05DF804FB00210191244B5A6CDB
:1019200042F480525A645A6C02F480520192019A35
:1019300002911A6B42F001021A631B6B03F0010360
:101940000293029BE023059302230693032308934B
:101950000523099305A9174801F0E2FBD9E7002107
:101960000391134B1A6C42F480421A641A6C02F40D
:1019700080420392039A04911A6B42F002021A63A6
:101980001B6B03F002030493049B4FF44443059341
:1019900002230693032308930523099305A9064808
:1019A00001F0BEFBB5E700BF003001400038004049
:1019B00000380240000002400004024000B583B03D
:1019C000002200920D4B596C41F480415964596CCE
:1019D00001F48041009100990192196C41F080510D
:1019E00019641B6C03F080530193019B0F216FF06E
:1019F000010001F00FF903B05DF804FB003802406C
:101A000030B589B0044600230193214B1A6C42F093
:101A100004021A641B6C03F004030193019B02A9E6
:101A200003A802F0AFFC069BCBB902F08BFC034687
:101A3000184AA2FB03239B0C013B1748174A02607C
:101A400040F2E732C2604360002303618360836138
:101A500003F094FB054630B1284609B030BD02F0D2
:101A600071FC4300E4E70C4803F028FA054600281F
:101A7000F2D11E2001F0DEF80F2C01D90125EBE791
:101A8000002221461E2001F0C5F8054B1C60E3E74B
:101A90000038024083DE1B43780D00200008004020
:101AA00008000020FEE7FEE7FEE7FEE7FEE77047DE
:101AB00008B5024801F046FA08BD00BFCC0E002070
:101AC00008B5024801F03EFA08BD00BF0C0E002028
:101AD00008B5024800F021FF08BD00BFA80800209B
:101AE00008B5024803F032FA08BD00BF780D0020A7
:101AF00008B5024803F01EFE08BD00BF740F0020A9
:101B000008B5024803F016FE08BD00BFBC0F002058
:101B100008B5024801F016FA08BD00BF6C0E00209F
:101B200008B5024800F0F9FE08BD00BF800800209B
:101B300008B5024802F011F808BD00BF5C4A012058
:101B40000120704708B50CF0B3FD162303604FF079
:101B5000FF3008BD08B54FF0FF31FFF7F3FFFEE798
:101B600070B50C461646002506E0AFF3008021460E
:101B700001F8010B01350C46B542F6DB304670BD6D
:101B800070B50C461646002504E014F8010BAFF3BF
:101B900000800135B542F8DB304670BD4FF0FF30B4
:101BA00070474FF400534B6000207047012070478E
:101BB0000020704710B503460C4A0D490D480068D7
:101BC00040B10C4800680344521A934206D8094AAF
:101BD000136010BD0748084C0460F2E70CF068FD84
:101BE0000C2303604FF0FF30F3E700BF000002203A
:101BF00000040000C00D0020206B0120034AD2F831
:101C0000883043F47003C2F88830704700ED00E07C
:101C100000B587B0002302930393049305930093C8
:101C200001931548154A02603D22426083603122CB
:101C3000C26003614361836103F0A0FA90B94FF47D
:101C40008053029302A90C4803F0D1FA68B900232B
:101C5000009301936946084803F048FB40B907B078
:101C60005DF804FBFFF788FDE9E7FFF785FDEEE788
:101C7000FFF782FDF3E700BFC40D00200004014020
:101C80000268094B9A4200D0704782B0002301934A
:101C9000064B5A6C42F002025A645B6C03F002037A
:101CA0000193019B02B070470004014000380240DC
:101CB00008B50A480A4B03604FF4164343600023FB
:101CC0008360C36003610C2242618361C36103F0DE
:101CD0004BFC00B908BDFFF74FFDFBE7BC0F002030
:101CE0000050004008B50A480A4B03604FF4E13346
:101CF000436000238360C36003610C2242618361FF
:101D0000C36103F031FC00B908BDFFF735FDFBE707
:101D1000740F00200010014008B50A480A4B036008
:101D20004FF4E133436000238360C36003610C22FE
:101D300042618361C36103F017FC00B908BDFFF77E
:101D40001BFDFBE72C0F0020004400402DE9F04173
:101D50008CB0044600230793089309930A930B93CE
:101D60000368754A934209D0744A934262D0744A18
:101D7000934200F0A4800CB0BDE8F08100250095EE
:101D8000704B1A6C42F480121A641A6C02F48012BE
:101D90000092009A01951A6B42F004021A631A6BC2
:101DA00002F004020192019A02951A6B42F00802B5
:101DB0001A631B6B03F008030293029B4FF48053DA
:101DC00007934FF00208CDF8208003270A970826D2
:101DD0000B9607A95C4801F0A3F904230793CDF8FB
:101DE000208009950A970B9607A9584801F098F9A1
:101DF0005748584B03604FF0006343608560C560EF
:101E00004FF48063036145618561C5610562456288
:101E100000F0A0FF58B94E4BE3639C6300220521FC
:101E2000352000F0F7FE352000F004FFA3E7FFF7B0
:101E3000A3FCF0E700250395424B5A6C42F01002D8
:101E40005A645A6C02F010020392039A04951A6BBA
:101E500042F001021A631B6B03F001030493049B1D
:101E60004FF4C06307930223089303230A930723C5
:101E70000B9307A9384801F053F93848384B0360F1
:101E80004FF0006343608560C5604FF48063036179
:101E900045618561C5610562456200F05BFF58B927
:101EA0002E4BE3639C6300220521252000F0B2FE47
:101EB000252000F0BFFE5EE7FFF75EFCF0E700259F
:101EC0000595204B1A6C42F400321A641A6C02F425
:101ED00000320592059A06951A6B42F001021A63C8
:101EE0001B6B03F001030693069B0C23079302234D
:101EF000089303230A9307230B9307A9164801F0BD
:101F00000FF91848184B03604FF000634360856079
:101F1000C5604FF48063036145618561C5610562F9
:101F2000456200F017FF18B90E4BE3639C6322E78C
:101F3000FFF722FCF8E700BF00500040001001400E
:101F4000004400400038024000080240000C0240FB
:101F5000CC0E002010600240000002406C0E0020F9
:101F6000406402400C0E002088600240DFF834D04C
:101F7000FFF744FE0C480D490D4A002302E0D458F7
:101F8000C4500433C4188C42F9D30A4A0A4C0023C3
:101F900001E013600432A242FBD30CF08FFBFFF789
:101FA00041FC7047000002200000002014080020BF
:101FB0009C37010818080020206B0120FEE7000074
:101FC00008B50B4B1A6842F400721A601A6842F4A2
:101FD00080621A601A6842F480721A60032000F06E
:101FE00007FE0F20FFF70CFDFFF7E8FC002008BDFF
:101FF000003C0240034A1168034B1B780B441360FA
:10200000704700BF0410002004000020014B186836
:10201000704700BF0410002038B50446FFF7F6FFF4
:102020000546B4F1FF3F02D0044B1B781C44FFF778
:10203000EDFF401BA042FAD338BD00BF04000020D2
:102040004A4B5A6822F440325A605A6841680A433F
:102050005A600268536823F48073536002685368BF
:10206000016943EA012353600268536823F0407317
:1020700053600268536881680B4353600268936839
:1020800023F40063936002689368C1680B43936014
:10209000826A374B9A4257D00268936823F0706384
:1020A000936002689368816A0B4393600268936847
:1020B00023F04053936002689368C16A0B439360B6
:1020C0000268936823F00203936002689368017EBC
:1020D00043EA4103936090F82030002B3FD0026820
:1020E000536843F4006353600268536823F4604309
:1020F000536001684B68426A013A43EA42334B60DD
:102100000268D36A23F47003D3620168CB6AC269A0
:10211000013A43EA0253CB620268936823F40073E6
:1021200093600268936890F8301043EA412393600B
:102130000268936823F4806393600268936841693E
:1021400043EA8123936070470268936823F07063C9
:1021500093600268936823F040539360B0E702688D
:10216000536823F400635360CAE700BF00230140B3
:102170000100000F38B310B50446036C43B1236C63
:1021800013F0100F0BD00120002384F83C3010BD59
:10219000FFF764F80023636484F83C30EFE7236CB6
:1021A00023F4885323F0020343F002032364204600
:1021B000FFF746FF00206064236C23F0030343F025
:1021C00001032364E0E701207047000030B482B0CF
:1021D0000022019290F83C20012A00F0C0800346C2
:1021E000012280F83C200A68092A40D90468E06886
:1021F00092B202EB42021E3A4FF0070C0CFA02F2C6
:1022000020EA0202E2601C68E0680A8802EB4202EF
:102210001E3A8D6805FA02F20243E2604A68062A15
:102220003CD81C68606B02EB8202053A4FF01F0C31
:102230000CFA02F220EA020262631C68606B4A68D0
:1022400002EB8202053AB1F800C00CFA02F2024336
:1022500062631868434A904250D01868414A9042DD
:1022600059D0002083F83C0002B030BC70470468AD
:10227000206992B202EB42024FF0070C0CFA02F214
:1022800020EA020222611C6820690A8802EB4202ED
:102290008D6805FA02F202432261BFE70C2A16D8C4
:1022A0001D68286B02EB8202233A1F2404FA02F213
:1022B00020EA02022A631D68286B4A6802EB820248
:1022C000233A0C8804FA02F202432A63C1E71D682C
:1022D000E86A02EB8202413A1F2404FA02F220EA81
:1022E0000202EA621D68E86A4A6802EB8202413A29
:1022F0000C8804FA02F20243EA62AAE70A68122A88
:10230000ABD1194A506820F400005060506840F486
:1023100080005060A1E70A681448824201D0112A67
:102320009FD1114A506820F480005060506840F4FA
:102330000000506009680D4A914292D10C4A12681F
:102340000C49A1FB0212920C02EB82025200019294
:10235000019A002A85D0019A013A0192F8E70220F9
:1023600082E700BF0020014000230140120000105E
:102370000000002083DE1B43002800F0A18038B558
:10238000044690F82030D3B12268136843F001036B
:102390001360FFF73BFE054623685A6812F0010FF1
:1023A00010D1FFF733FE401B0A28F5D9636A43F4C6
:1023B00000336362052384F82030012038BDFEF726
:1023C000C5FFE1E71A6822F002021A60FFF71EFE5D
:1023D000054623685A6812F0020F0DD0FFF716FE6B
:1023E000401B0A28F5D9636A43F40033636205236E
:1023F00084F820300120E1E7227E012A3DD01A68CE
:1024000022F080021A60637E012B3BD022681368A1
:1024100023F040031360A37E012B39D02268136898
:1024200023F020031360E37E012B37D0226813686A
:1024300043F010031360237F012B35D0226813680B
:1024400023F008031360637F012B33D022681368E5
:1024500023F004031360A368E26813432269134363
:10246000626913436268013A21681343CB6100201B
:102470006062012384F82030A0E71A6842F08002ED
:102480001A60C0E72268136843F040031360C2E794
:102490002268136843F020031360C4E722681368BE
:1024A00023F010031360C6E72268136843F00803A3
:1024B0001360C8E72268136843F004031360CAE797
:1024C0000120704790F82030013BDBB2012B05D989
:1024D000436A43F4802343620120704730B5464B82
:1024E000D3F8002242F00102C3F80022D3F8002200
:1024F00022F47C52C3F80022D3F80022486A42EA50
:102500000022C3F800224A6902F01F02012000FAEB
:1025100002F2D3F81C026FEA020C20EA0200C3F8B0
:102520001C02CB69C3B9344BD3F80C020CEA00008F
:10253000C3F80C028C884869CD6844EA05444830E9
:1025400043F830408C68088840EA04404C6904F144
:10255000480E03EBCE035860CB69012B1ED08B696C
:10256000002B33D12448D0F804320CEA0303C0F81E
:1025700004320B698BBB2048D0F814320CEA0303F9
:10258000C0F814320B6A012B2ED01B4AD2F800324D
:1025900023F00103C2F80032002030BD164BD3F8FF
:1025A0000C021043C3F80C028C8848690D6844EA99
:1025B0000544483043F8304088894C698D6840EACA
:1025C0000540483403EBC4035860C8E70A48D0F814
:1025D00004321343C0F80432CBE70748D0F8143272
:1025E0001343C0F81432CDE70349D1F81C3213432A
:1025F000C1F81C32C9E700BF0064004070B5044652
:1026000090F82050EDB2012D06D0436A43F4002328
:1026100043620125284670BD022380F820300268FD
:10262000136823F001031360FFF7F0FC06462368EC
:102630005B6813F0010F0CD0FFF7E8FC831B0A2B3B
:10264000F5D9636A43F400336362052384F82030CC
:10265000E0E700256562DDE730B590F820C004684A
:10266000A4680CF1FF3C5FFA8CFCBCF1010F62D84E
:1026700014F0E05F59D0C4F3016C012404FA0CF4A7
:102680001C608B68002B3DD10D68CB68046843EA61
:1026900045550CF118031B01E55003680C690CF15A
:1026A000180E03EB0E135C600B7D012B35D0D17936
:1026B00093791B0443EA0163517943EA01231479B6
:1026C0000168234301EB0C11C1F88C31D178937868
:1026D0001B0443EA0163517843EA0123117802683D
:1026E0000B4302EB0C12C2F8883102680CF1180C93
:1026F0004FEA0C1C52F80C3043F0010342F80C3046
:1027000000201DE04C6843EAC403CC6823430CF16D
:102710001804240105682B51BFE7036803EB0E136F
:10272000596841F480715960C1E7436A43F400136A
:102730004362012004E0436A43F4802343620120A2
:1027400030BD90F82030013BDBB2012B01D90020D5
:1027500070470368986810F0806000D001209A6884
:1027600012F0006F00D001309B6813F0805FEFD053
:102770000130704790F820C00CF1FF3C5FFA8CFCF0
:10278000BCF1010F00F2A58030B451B90468E468CF
:1027900014F0030F10D1436A43F400134362012085
:1027A0007EE00468246914F0030F05D1436A43F402
:1027B00000134362012073E0056801F11B0424014A
:1027C0002C5904F004049460002C6BD1056801F1CD
:1027D0001B0424012C59640D1460046801F11B0CC6
:1027E0004FEA0C1C54F80C4004F00204D460046856
:1027F000A444DCF8045015F0080F5BD008241461E1
:10280000046801F11B0C04EB0C146468C4F3072486
:102810009461046804EB0C146468240C546102682D
:1028200002EB0112D2F8B8211A70026802EB011211
:10283000D2F8B821C2F307225A70026802EB0112E3
:10284000D2F8B821C2F307429A70026802EB011273
:10285000D2F8B821120EDA70026802EB0112D2F837
:10286000BC211A71026802EB0112D2F8BC21C2F33A
:1028700007225A71026802EB0112D2F8BC21C2F39E
:1028800007429A71026802EB0112D2F8BC21120EC3
:10289000DA71C1B90268D36843F02003D360002025
:1028A00030BC7047056801F11B0424012C59E40871
:1028B000546092E701F11B0504EB0514646804F011
:1028C0000F0414619CE70268136943F0200313614D
:1028D000E5E7436A43F4802343620120704790F8A0
:1028E0002030013BDBB2012B05D9436A43F480233E
:1028F000436201207047026853690B435361002013
:10290000704770477047704770477047704770470F
:10291000704770477047704770472DE9F84F05467C
:1029200003685C69D3F804809F68D3F80CA0D3F8DF
:102930001090D3F818B014F001063BD017F0010640
:1029400016D001229A6017F0020F08D117F0040F79
:102950000CD117F0080606D04FF4805608E0FFF7B8
:10296000D0FF002604E0FFF7CFFF01E04FF4006640
:1029700017F4807F0DD02B684FF480729A6017F4A3
:10298000007F40F0968017F4806F00F0968046F448
:10299000005617F4803F0DD02B684FF480329A60B8
:1029A00017F4003F40F0938017F4802F00F09380DD
:1029B00046F4004614F0080F07D01AF0100F04D0A8
:1029C00046F400762B681022DA6014F0040F03D06E
:1029D0001AF0080F40F0898014F0020F05D02B6820
:1029E000DB6813F0030F40F0878014F0400F07D02E
:1029F00019F0100F04D046F480662B6810221A617B
:102A000014F0200F02D019F0080F79D114F0100F34
:102A100004D02B681B6913F0030F78D114F4003F26
:102A200002D018F0100F76D114F4803F02D018F0C5
:102A3000080F77D114F4004F37D018F0040F31D0BD
:102A400014F4807F04D01BF0010F01D046F0010682
:102A500014F4007F04D01BF0020F01D046F00206F0
:102A600014F4806F04D01BF0040F01D046F004066C
:102A700014F4006F16D01BF0700B13D0BBF1400F95
:102A800066D056D8BBF1200F5CD0BBF1300F5CD0C4
:102A9000BBF1100F01D146F008062A68936923F0B4
:102AA000700393612B6804225A60002E56D1BDE852
:102AB000F88F2846FFF726FF6BE717F4006F02D068
:102AC00046F4804665E72846FFF71FFF61E7284682
:102AD000FFF719FF6EE717F4002F02D046F4803697
:102AE00068E72846FFF712FF64E72B680822DA60E0
:102AF0002846FFF70CFF6FE7284607F0D3FE74E780
:102B00002B6808221A612846FFF703FF7EE7284654
:102B1000FFF7FEFE82E72B6810225A602846FFF777
:102B2000F9FE81E72B6808225A602846FFF7F3FE7A
:102B300080E7BBF1500F0ED0BBF1600FADD146F472
:102B40008076AAE746F01006A7E746F02006A4E73D
:102B500046F04006A1E746F080069EE76B6A3343E5
:102B60006B622846FFF7D8FEA1E70000002807DBCC
:102B700000F01F02400901239340024A42F820302E
:102B8000704700BF00E100E0002808DB0901C9B27E
:102B900000F1604000F5614080F80013704700F0DC
:102BA0000F000901C9B2014B1954704714ED00E040
:102BB00000B500F00700C0F1070CBCF1040F28BFFE
:102BC0004FF0040C031D062B0FD9C31E4FF0FF3E20
:102BD0000EFA0CF021EA000199400EFA03FE22EAF7
:102BE0000E0241EA02005DF804FB0023EEE700005C
:102BF000074AD36823F4E0631B041B0C000200F4B3
:102C0000E060034343F0BF6343F40033D360704795
:102C100000ED00E010B50446054BD868C0F3022073
:102C2000FFF7C6FF01462046FFF7AEFF10BD00BF0D
:102C300000ED00E008B5FFF799FF08BD58B110B5E9
:102C4000044643791BB101236371002010BD037159
:102C5000FEF71EFCF7E70120704730B405682C68CA
:102C600024F480242C60046863608368402B05D0C2
:102C7000036899600368DA6030BC704703689A6043
:102C80000368D960F8E7000010B40368D9B21039BE
:102C90000A4AA2FB01421209094CA25CC2655F29E3
:102CA00007D96FF3090304338365806D5DF8044B26
:102CB00070476FF309038365F7E700BFABAAAAAAC1
:102CC00030330108836A826992B9012B0AD0022B42
:102CD00002D00BB100207047C36A13F0807F28D167
:102CE00000207047C36AB3F1C07F24D00020704732
:102CF000B2F5005F09D0022B25D9032B25D1C36A79
:102D000013F0807F23D100207047032B03D8DFE826
:102D100003F01404140A00207047C36A13F0807F84
:102D20000DD100207047C36AB3F1C07F09D00020E5
:102D30007047012070470120704701207047012033
:102D40007047012070470120704700207047012024
:102D50007047000070B50446FFF758F9002C5BD0AF
:102D60000546022384F83530002384F83430226885
:102D7000136823F00103136023681A6812F0010F2F
:102D80000AD0FFF743F9431B052BF5D920236365D0
:102D9000032084F8350070BD1A682049114062682C
:102DA000A0680243E068024320690243606902436D
:102DB000A0690243E0690243206A02430A43616A50
:102DC00004291ED01A602668756925F00705636A14
:102DD0001D43042B07D1A36A1D43E36A1BB12046A0
:102DE000FFF770FF90B975612046FFF74DFFE26D68
:102DF0003F239340836000206065012384F83530D1
:102E0000C9E7E16A206B01430A43DBE740236365BE
:102E1000012084F83500BEE70120BCE73F8010F0B8
:102E200038B50446856D90F8340001282BD0012078
:102E300084F8340094F83500C0B2012804D000238F
:102E400084F83430022038BD022084F83500002098
:102E500060652046FFF701FFE26D3F239340AB60C2
:102E60002268136843F016031360236C23B12268B1
:102E7000136843F0080313602268136843F00103EA
:102E800013600020DFE70220DDE770B50446866DA1
:102E9000FFF7BCF894F83530DBB2022B06D0802364
:102EA0006365002384F83430012070BD0546226834
:102EB000136823F0160313602268536923F080031C
:102EC0005361236CE3B12268136823F00803136095
:102ED0002268136823F00103136023681B6813F052
:102EE000010F11D0FFF792F8431B052BF5D92023D2
:102EF0006365032084F83500002384F83430D4E778
:102F0000A36C002BDFD1E3E7E26D3F239340B36076
:102F1000012384F83530002084F83400C5E790F8A8
:102F20003530DBB2022B03D080234365012070478C
:102F3000052380F835300268136823F0010313601D
:102F400000207047F0B583B0044600230193724B14
:102F50001D68724BA3FB0535AD0A876D3E68C26DD7
:102F600008239340334210D003681A6812F0040F0C
:102F70000BD01A6822F004021A60C26D0823934035
:102F8000BB60436D43F001034365E26D0123934051
:102F9000334209D02268526912F0800F04D0BB601E
:102FA000636D43F002036365E26D04239340334293
:102FB00009D02268126812F0020F04D0BB60636D62
:102FC00043F004036365E26D10239340334224D041
:102FD0002268126812F0080F1FD0BB6023681A68BD
:102FE00012F4802F0DD01B6813F4002F04D1236C32
:102FF0009BB12046984710E0A36C73B120469847D8
:103000000BE01A6812F4807F03D11A6822F00802DC
:103010001A60236C0BB120469847E26D2023934041
:10302000334255D02268126812F0100F50D0BB60A6
:1030300094F83530DBB2052B0ED023681A6812F4F1
:10304000802F33D01B6813F4002F2AD1636C002B20
:103050003ED0204698473BE02268136823F01603D1
:1030600013602268536923F080035361236CA3B17A
:103070002268136823F008031360E26D3F23934036
:10308000BB60012384F83530002384F83430236D8D
:10309000002B3FD0204698473CE0A36C002BE7D1A3
:1030A000EBE7E36BA3B12046984711E01A6812F4EE
:1030B000807F09D11A6822F010021A60012384F877
:1030C0003530002384F83430E36B0BB12046984749
:1030D000636DFBB1636D13F0010F17D0052384F806
:1030E00035302268136823F001031360019B01331C
:1030F0000193AB4204D823681B6813F0010FF5D18C
:10310000012384F83530002384F83430E36C0BB1AC
:103110002046984703B0F0BD00000020B5814E1B4B
:1031200000230F2B00F2E38070B582B065E0856864
:103130004FEA430E032404FA0EF425EA0405CC6892
:1031400004FA0EF42C438460446824EA02044A68BA
:10315000C2F300129A40224342605CE0DC0808346B
:1031600050F8242003F00705AD004FF00F0E0EFAC3
:1031700005FE22EA0E0E0A69AA4042EA0E0240F853
:1031800024205CE0062200E0002202FA0EF22A432C
:103190000234574D45F82420564A94686FEA0C02D1
:1031A00024EA0C054E6816F4801F01D04CEA040591
:1031B000504CA560E46802EA04054E6816F4001F4E
:1031C00001D04CEA04054B4CE560646802EA040552
:1031D0004E6816F4003F01D04CEA0405454C65608A
:1031E000246822404D6815F4803F01D04CEA040267
:1031F000404C226001330F2B77D801229A400C6893
:1032000004EA020C32EA0404F4D14C6804F003042A
:10321000013C012C8BD94A6802F00302032A09D031
:10322000C4685D000322AA4024EA02048A68AA4016
:103230002243C2604A6802F00302022A8ED0046868
:103240004FEA430E032202FA0EF224EA02044A680D
:1032500002F0030202FA0EF2224302604A6812F4FC
:10326000403FC7D000220192234A546C44F480446A
:103270005464526C02F480420192019A9C08A51C8D
:103280001B4A52F8255003F0030E4FEA8E0E0F2210
:1032900002FA0EF225EA0205184A90423FF474AF92
:1032A00002F58062904216D002F58062904214D0FE
:1032B00002F58062904212D002F58062904210D0F6
:1032C00002F5806290420ED002F5806290423FF497
:1032D00059AF072259E7012257E7022255E7032297
:1032E00053E7042251E705224FE702B070BD704753
:1032F00000380140003C014000380240000002401C
:103300000369194201D001207047002070470AB1BB
:1033100081617047090481617047436901EA0302D2
:1033200021EA030141EA024181617047002800F06F
:10333000CC8070B5044690F83D30002B77D0242324
:1033400084F83D302268136823F00103136022687B
:10335000136843F4004313602268136823F40043A6
:10336000136000F0EFFF62685A4B9A4264D85A4BE0
:1033700098428CBF00230123002B40F0A8805749BE
:10338000A1FB00318B0C25686A6822F03F0242EAFB
:1033900091426A6021680A6A22F03F0266684D4DD8
:1033A000AE424FD8013313430B622168CA6922F43D
:1033B0004F4222F0FF026568464B9D424CD8431EA7
:1033C0006D00B3FBF5F3013340F6FC70034278D097
:1033D000C3F30B031A43CA6121680B6823F0C003CF
:1033E000E269206A024313430B6021688B6823F46F
:1033F000034323F0FF032269E068024313438B6019
:103400002168CB6823F0FF036269A069024313437C
:10341000CB602268136843F001031360002020642E
:10342000202384F83D30206384F83E0070BD80F88E
:103430003C30FEF75DF982E7294B98428CBF0023B0
:10344000012399E74FF4967505FB03F3254DA5FB82
:1034500003539B090133A6E7A668BEB9431E05EBDB
:10346000450CB3FBFCF30133C3F30B03B3FA83F353
:103470005B0943BBC6B9431E05EB4505B3FBF5F33A
:103480000133C3F30B0343F40043A3E7431E05EBEF
:10349000850C0CEB8C0CB3FBFCF30133C3F30B0377
:1034A000B3FA83F35B09E4E7431E05EB850505EBFF
:1034B0008505B3FBF5F30133C3F30B0343F440433A
:1034C00088E7042386E7012384E701207047012071
:1034D000ACE700BFA08601007F841E0083DE1B4393
:1034E000FF083D00D34D62102DE9F04383B0D0F8C2
:1034F000008001EBC10300EB83039A6A5B6A9A4286
:1035000054D807460C469B1A01EBC10200EB82021D
:10351000D2699A4200D31A4602F103094FEA990987
:1035200015E006F103094FEA9909BB7904EBC405DC
:1035300007EB8505296A0093B3B2E2B2404602F078
:1035400068FE2B6A33442B62AB6A3344AB6208EBF0
:10355000441303F510639B699BB24B4512D304EBF4
:10356000C40307EB83039A6A5B6A9A420AD24BB19F
:103570009B1A04EBC40207EB8202D6699E42D0D3A9
:103580001E46CEE704EBC40307EB83077A6ABB6AE7
:103590009A420FD804F00F040122A240D8F8343820
:1035A00023EA0203C8F83438002000E0012003B009
:1035B000BDE8F0830020FAE730B583B0002800F0C2
:1035C00082800446056890F89534C3B1032384F8DB
:1035D0009534B5F1A04F17D0206802F0D1FB237CC1
:1035E0008DF80030231D0ECB206802F008FB70B16F
:1035F000022384F895340125284603B030BD80F8B5
:10360000943406F0B1F8E1E70023A371E4E7002168
:10361000206803F014F8024608B9034617E00223B5
:1036200084F895340125E7E703EBC30104EB81013E
:10363000012048750B75CB8500200876C8610862AB
:1036400003EBC30104EB810148620133DBB2207953
:103650009842E9D816E002EBC20304EB8303002191
:1036600083F8551283F8542283F85812C3F85C1279
:10367000C3F8601202EBC20304EB8303C3F86412C5
:103680000132D2B29042E6D8237C8DF80030231D5F
:103690000ECB206802F0CAFB054658B900236374BC
:1036A000012384F89534237B012B08D0206802F095
:1036B00085FFA1E7022384F8953401259CE7204685
:1036C00000F076FDF2E7012596E7036890F8942470
:1036D000012A1AD010B50446012280F89424DA6831
:1036E00012F0400F02D0427B012A09D0206802F07C
:1036F00041FB206802F054FF002084F8940410BDC0
:103700009A6B42F480329A63F0E70220704700001F
:1037100070B504460D460068066C00EB411303F5D6
:1037200030639A68A179012911D038498E4256D068
:103730003DB905EBC50304EB8303D3F86432002BDA
:103740005ED0E9B2204606F06BF8002070BD12F0A2
:10375000080F09D02E498E42F7D912F4004FF4D049
:103760004FF400429A60F0E712F0200F02D02022BE
:103770009A60EAE712F0280FE7D125498E4206D970
:1037800012F4004F03D04FF400429A60DDE705EBDE
:10379000C50204EB8202D2F874121B69C3F3120350
:1037A000CB1AC2F868327DB905EBC50204EB820280
:1037B000D2F864226AB105EBC50204EB8202D2F8AA
:1037C00060121944C2F86012E9B2204606F028F8E7
:1037D000BBE704F29C42012102F070FFF4E712F40F
:1037E000004F03D04FF400429A60AEE712F0200F72
:1037F00001D020229A60E9B2204606F011F8A4E731
:1038000004F29C42002102F059FF9AE70A31544F1A
:103810000A30544F38B5044603681D6C03EB41135E
:10382000D3F8081B0E4A954207D903F5306311F40B
:10383000004F02D04FF400429A60204605F0E8FFA6
:10384000074B9D4202D9A379012B01D0002038BD3E
:1038500004F29C420121206802F030FFF6E700BF2D
:103860000A30544F90F89434012B0CD010B5044614
:10387000012380F894344174006802F081FE002036
:1038800084F8940410BD0220704738B505468C4674
:1038900011F0800F2BD101F00F0E0EEBCE04A4001F
:1038A00004F514740444211D0EEBCE0E00EB8E0EB5
:1038B00000208EF855020CF00F0C81F800C0C2F306
:1038C0000A028A600B714A780AB1A1F81AC0022B69
:1038D0001CD095F89434012B1BD0012385F8943427
:1038E000286802F07AFB002085F8940438BD01F0C6
:1038F0000F0000EBC001890010312944043100EBB6
:10390000C00005EB800001244475D4E700234B710F
:10391000DFE70220EAE710B504460A4611F0800FFF
:1039200020D101F00F0000EBC0039B0003F51473DE
:103930002344191D00EBC00004EB8000002380F835
:10394000553202F00F020A7094F89434012B18D00B
:10395000012384F89434206802F08CFB002084F862
:10396000940410BD01F00F0000EBC0039B00103366
:103970002344191D00EBC00004EB800001234375B4
:10398000DFE70220EDE710B5144601F00F0C0CEB59
:10399000CC01890001F51471014404310CEBCC0E0B
:1039A00000EB8E0ECEF86022CEF864320023CEF803
:1039B00068328EF855328EF854C28279012A04D0CA
:1039C000006802F03DFC002010BDCEF87042F7E721
:1039D00001F00F0101EBC10100EB8100D0F868029A
:1039E000704710B5144601F00F0C0CEBCC018900A8
:1039F0001031014404310CEBCC0E00EB8E0ECEF8EE
:103A00002020CEF824300023CEF8283001238EF871
:103A100015308EF814C082799A4204D0006802F002
:103A20000FFC002010BDCEF83040F7E738B501F0AC
:103A30000F050279AA4238D304460B4611F0800FD5
:103A40001FD101EBC101890001F51471014404315A
:103A500003EBC30300EB8303002283F85522012309
:103A60008B700D7094F89434012B20D0012384F8CE
:103A70009434206802F029FD85B1002084F8940474
:103A800038BD05EBC501890010310144043105EB57
:103A9000C50300EB830301225A75E0E704F29C4260
:103AA000A179206802F00AFEE7E70120E8E702209A
:103AB000E6E701F00F0302799A4230D310B50446CD
:103AC00011F0800F1ED103EBC301890001F51471C1
:103AD0000144043103EBC30200EB8202002082F8B0
:103AE000550200228A700B7094F89434012B18D080
:103AF000012384F89434206802F014FD002084F837
:103B0000940410BD03EBC30189001031014404315A
:103B100003EBC30200EB820201205075E1E70120B4
:103B200070470220EDE708B511F0800F0CD101F0CD
:103B30000F0101EBC101890001F514710144043149
:103B4000006802F007FB08BD01F00F0101EBC101A5
:103B50008900103101440431F2E72DE9F04F83B0C0
:103B600004460568284602F066FD10B103B0BDE8C2
:103B7000F08F0646206802F02FFD0028F6D005F5EC
:103B80000067BB68C3F30D23C4F8D434206802F087
:103B900023FD10F0020F04D02268536903F00203E2
:103BA0005361206802F018FD10F0100F16D0226843
:103BB000936923F010039361D5F8208008F00F0972
:103BC00008F4F013B3F5802F6AD0B3F5402F00F05E
:103BD0008D802268936943F010039361206802F09E
:103BE000FBFC10F4002F40F09380206802F0F4FCFE
:103BF00010F4802F40F0FC80206802F0EDFC0028DB
:103C0000C0F27D81206802F0E7FC10F4006F09D05B
:103C1000BB6813F0010F40F08A812268536903F4F6
:103C200000635361206802F0D7FC10F0006F15D0DC
:103C30002268536903F00063536194F8CC34002B7D
:103C400040F07981012184F8CC1423685B6DC3F3C3
:103C50008303C4F8D034204605F09AFE206802F0B1
:103C6000BBFC10F4805F40F06A81206802F0B4FC75
:103C700010F4005F40F0B781206802F0ADFC10F056
:103C8000080F40F0C881206802F0A6FC10F0800FF9
:103C900000F0DB81AB6923F08003AB610126C4E156
:103CA00047F6F07318EA030F93D04FEA181A4FEA59
:103CB000C903019309EBC90B04EB8B0BC8F30A1280
:103CC000DBF86012284602F0DDFBDBF86032CAF355
:103CD0000A0A5344CBF86032DBF86832019A4A444E
:103CE00004EB82025344C2F8683272E7082204F2FD
:103CF0009C41284602F0C6FB09EBC90304EB830391
:103D0000D3F86822C8F30A184244C3F8682260E76F
:103D1000206802F065FC8046B14635E005EB4913AA
:103D20000122C3F8082B49462046FFF7F1FC3CE08E
:103D300005EB49130822C3F8082B49462046FFF734
:103D400069FD35E009EBC90304EB830393F85732AF
:103D5000012B41D005EB49130222C3F8082B1AF0BE
:103D6000200F04D005EB49132022C3F8082B1AF4C6
:103D7000005F05D005EB49134FF40052C3F8082B40
:103D800009F101094FEA5808B8F1000F3FF42DAFCF
:103D900018F0010FF4D05FFA89FB5946206802F051
:103DA0002FFC824610F0010FB8D11AF0080FBFD1D6
:103DB0001AF0100F04D005EB49131022C3F8082B9A
:103DC0001AF0020FCBD06B6913F0800FBAD07B686A
:103DD00043F480637B60B5E709EBC90304EB83031D
:103DE000002283F857225946204605F069FDB1E7C5
:103DF000206802F0FDFB8046B14625E0594620468A
:103E000005F01AFD1AF0080F04D005EB491308223B
:103E1000C3F808291AF0100F04D005EB491310223B
:103E2000C3F808291AF0400F04D005EB49134022CB
:103E3000C3F808291AF0020F40D11AF0800F59D1A7
:103E400009F101094FEA5808B8F1000F3FF4D4AE68
:103E500018F0010FF4D05FFA89FB5946206802F090
:103E6000D8FB824610F0010FCCD009F00F020121DF
:103E700001FA02F27B6B23EA02037B6305EB491331
:103E8000C3F80819A3798B42B8D109EBC90304EB35
:103E900083031A6AD9690A441A62B9F1000FADD1D5
:103EA00009EBC90304EB83035B6A002BA6D104F280
:103EB0009C420121206802F001FC9FE74946284608
:103EC00001F064FF09EBC90304EB8303DB7D012BE5
:103ED00005D005EB49130222C3F80829ADE709EB29
:103EE000C90304EB83030022DA755946204605F026
:103EF000EDFCEEE749462046FFF7F6FAA0E77B68BF
:103F000023F001037B6094F8CC34012B08D02046C9
:103F100005F0D0FC2268536903F00043536171E659
:103F2000002184F8CC14204605F032FDF2E720464B
:103F300005F0A8FC71E6204605F0A4FC8EE67B683F
:103F400023F001037B601021206801F01FFF1AE0BD
:103F500005EB46134FF67F31C3F80819D3F8002953
:103F600022F40012C3F80029C3F8081BD3F8002B71
:103F700022F40012C3F8002BD3F8002B42F00062A9
:103F8000C3F8002B01362379B342E1D8FB6943F033
:103F90000113FB61E37BDBB1D7F8843043F00B0303
:103FA000C7F884307B6C43F00B037B64D5F8003892
:103FB00023F4FE63C5F8003804F29C42A17920681E
:103FC00002F07CFB2268536903F4805353614CE692
:103FD0007B6943F4005343F02B037B613B6943F05F
:103FE0000B033B61E2E7206802F05AFB206801F016
:103FF000E3FFE071266800F09FF90146E279304660
:1040000001F046FE204605F028FC2268536903F4BF
:104010000053536130E6204605F019FC22685369CD
:1040200003F0080353612EE601362379B3420CD91D
:1040300006EBC60304EB830393F85732012BF3D14D
:10404000F1B22046FFF76FFDEEE7206802F0C4FAF8
:1040500010F4801F25D1206802F0BEFA10F4001F72
:1040600058D0012326E001362379B3421BD905EB52
:104070004613D3F8002906EBC60304EB83031B7E2B
:10408000012BF0D1002AEEDA06EBC60304EB830322
:104090000122DA7566F07F01C9B22046FFF743FDC1
:1040A000E1E70126E0E72268536903F480135361D6
:1040B000D1E7013322799A4227D905EB4312D2F88E
:1040C000001B03EBC30204EB820292F85822012A80
:1040D000EFD10029EDDAD4F8D42482EA114212F0AB
:1040E000010FE6D103EBC30204EB8202012182F847
:1040F0005712AA6942F08002AA616A6912F0800F21
:10410000D7D17B6843F400737B602268536903F462
:1041100000135361206802F05FFA10F0804F10D155
:10412000206802F059FA10F0040F3FF41FAD236825
:104130005D6815F0040F0DD1226853682B4353605E
:1041400014E5204605F0C8FB2268536903F080435C
:104150005361E5E7204605F0C5FBEDE710B40468C0
:10416000606A31B940EA0240A06200205DF8044B69
:1041700070478C46A36A00EB1340002308E003F16C
:10418000400104EB8101496800EB11400133DBB2CF
:104190000CF1FF318B42F2D340EA02400CF13F01B7
:1041A00004EB81046060E0E7036859620020704717
:1041B000034602680121C0F8D814002083F8CC041B
:1041C000936943F000639361536D43F0805343F070
:1041D0000303536570470000002800F09B8070B512
:1041E0000D4604464F4B1B6803F00F038B4208D269
:1041F000CBB24C4A1370136803F00F038B4240F0AC
:104200008B80236813F0020F17D013F0040F04D033
:10421000454A936843F4E0539360236813F0080F12
:1042200004D0414A936843F4604393603E4A9368E4
:1042300023F0F003A1680B439360236813F0010F90
:1042400032D06368012B21D09A1E012A25D9364A23
:10425000126812F0020F61D033498A6822F003021B
:1042600013438B60FDF7D2FE06462F4B9B6803F08D
:104270000C036268B3EB820F16D0FDF7C7FE801BFC
:1042800041F288339842F0D9032042E0264A12686E
:1042900012F4003FE0D101203BE0234A126812F003
:1042A000007FD9D1012034E01E4B1B6803F00F03BF
:1042B000AB4207D9EAB21B4B1A701B6803F00F031D
:1042C000AB422DD1236813F0040F06D0164A936831
:1042D00023F4E053E1680B439360236813F0080F65
:1042E00007D0114A936823F46043216943EAC1036C
:1042F000936000F09FFA0C4B9B68C3F303130B4AC7
:10430000D35CD8400A4B18600A4B1868FDF778FB5D
:10431000002070BD012070470120FAE70120F8E776
:104320000120F6E7003C024000380240203301083B
:104330000000002008000020014B1868704700BFF3
:104340000000002008B5FFF7F7FF044B9B68C3F39C
:104350008223034AD35CD84008BD00BF0038024026
:104360001833010808B5FFF7E7FF044B9B68C3F358
:104370004233034AD35CD84008BD00BF0038024036
:10438000183301080F2303600B4B9A6802F00302F5
:1043900042609A6802F0F00282609A6802F4E05289
:1043A000C2609B68DB0803F4E0530361034B1B68A6
:1043B00003F00F030B60704700380240003C0240DE
:1043C000F0B583B00446066816F001060DD0964A93
:1043D000D2F88C3023F0C063816B0B43C2F88C3071
:1043E000836B002B00F09B800026236813F0020FE4
:1043F0000BD08D4AD2F88C3023F0C053E16B0B43C5
:10440000C2F88C30E36B03B90126256815F004056A
:104410000FD0854AD2F88C3023F44013216B0B4324
:10442000C2F88C30236BB3F5801F7AD0002B7AD082
:104430000025236813F0080F0ED07B4AD2F88C3089
:1044400023F44003616B0B43C2F88C30636BB3F50C
:10445000800F6AD003B90125236813F0200F66D1BD
:10446000236813F0100F04D094F858206F4BC3F852
:10447000E021236813F0800F08D06B4AD2F8943003
:1044800023F44003E16C0B43C2F89430236813F02B
:10449000400F08D0644AD2F8943023F08063A16CB6
:1044A0000B43C2F89430236813F4807F0DD05E4A2A
:1044B000D2F8943023F00063616D0B43C2F894305E
:1044C000636DB3F1006F00F09B80236813F4007FED
:1044D00008D0554AD2F8943023F08053616C0B43D6
:1044E000C2F89430236813F4806F0CD04E4AD2F88F
:1044F000943023F00053216D0B43C2F89430236DA8
:10450000B3F1005F7ED0002E7CD12368B3F5006F3D
:1045100078D0012D00F02581002003B0F0BD0126E8
:1045200063E7012682E7012583E7012692E700235E
:1045300001933D4B1A6C42F080521A641B6C03F0DD
:1045400080530193019B3A4A136843F480731360CC
:10455000FDF75CFD0746364B1B6813F4807F06D1E0
:10456000FDF754FDC01B0228F5D90320D5E72E4BDB
:104570001B6F13F4407314D0226C02F440729A4201
:104580000FD0294B1A6F22F440722A490120C1F83A
:10459000400E0020C1F8400E1A671B6F13F0010F88
:1045A00012D1236C03F44072B2F5407F1DD01E4A35
:1045B000936823F4F81393601B490B6F226CC2F3CA
:1045C0000B0213430B674BE7FDF720FD0746164B25
:1045D0001B6F13F0020FE4D1FDF718FDC01B41F271
:1045E00088339842F3D9032097E70F498A6822F469
:1045F000F81223F0704323F4407313438B60DBE71E
:10460000012562E70B4B00229A66FDF7FFFC064688
:10461000054B1B6813F0006F0ED0FDF7F7FC801BF5
:104620000228F5D9032078E70038024000104742FD
:104630000070004000004742236813F0010F01D0D2
:10464000A26B22B113F0020F15D0E36B9BB9774A2E
:10465000D2F88400D2F884106368A66843EA86130F
:1046600000F44030034301F070610B43616943EA99
:104670000173C2F88430236813F0040F03D0226B57
:10468000B2F5801F06D013F0080F20D0636BB3F58E
:10469000800F1CD1654AD2F88400D2F88410636878
:1046A000A66843EA861300F440300343206943EAD6
:1046B000006301F0E0410B43C2F88430D2F88C3043
:1046C00023F01F03A16A01390B43C2F88C30236821
:1046D00013F4806F03D0236DB3F1005F28D02368FB
:1046E00013F4006F11D06368A26843EA8213E26892
:1046F0005208013A43EA0243226943EA02636269CB
:1047000043EA0273494AC2F88430494B01229A664F
:10471000FDF77CFC0646454B1B6813F0006F7FF4E9
:10472000F8AEFDF773FC801B0228F4D90320F4E6F1
:104730003E48D0F88420C2F301420132D0F88460B0
:104740006368A16843EA8113E1684908013943EAD3
:10475000014343EA426306F0E0421343C0F8843069
:10476000BDE7334B00221A67FDF750FC05462F4B7F
:104770001B6813F0005F06D0FDF748FC401B0228C1
:10478000F5D90320C9E6236813F0040F01D0226B8A
:1047900022B113F0080F1AD0636BC3B9234AD2F8C1
:1047A0008810A369E06943EA801301F440310B43A8
:1047B000616A43EA0163C2F88830D2F88C3023F48E
:1047C000F853E16A013943EA0123C2F88C302368C7
:1047D00013F4807F03D0636DB3F1006F11D0144BDD
:1047E00001221A67FDF712FC0446104B1B6813F0F8
:1047F000005F18D1FDF70AFC001B0228F5D9032041
:104800008BE60A48D0F88810A369E26943EA82136C
:10481000226A5208013A43EA024301F070621343EC
:10482000C0F88830DBE7002077E600BF00380240A0
:104830000000474208B5464B9B6803F00C03082B69
:1048400005D00C2B43D0042B7FD1424819E0404BBC
:104850005A6802F03F025B6813F4800F12D03C4BA1
:104860005968C1F388113B480023A1FB0001FCF704
:10487000C1FA374B5B68C3F3014301335B00B0FB04
:10488000F3F008BD324B5868C0F388104FEA401C63
:10489000BCEB000C6EEB0E0E4FEA8E1343EA9C63EA
:1048A0004FEA8C11B1EB0C0163EB0E03DB0043EA22
:1048B0005173C90011EB000C43F10003990200236E
:1048C0004FEA8C2041EA9C51FCF794FAD1E7204B47
:1048D0005A6802F03F025B6813F4800F10D01C4B43
:1048E0005968C1F388111B480023A1FB0001FCF7A4
:1048F00081FA174B5B68C3F30273B0FBF3F0C0E7B8
:10490000134B5868C0F388104FEA401CBCEB000CF6
:104910006EEB0E0E4FEA8E1343EA9C634FEA8C1146
:10492000B1EB0C0163EB0E03DB0043EA5173C900EA
:1049300011EB000C43F10003990200234FEA8C2095
:1049400041EA9C51FCF756FAD3E7034899E700BFC8
:104950000038024000366E010024F400002800F008
:10496000018270B582B00446036813F0010F41D094
:10497000994B9B6803F00C03042B32D0964B9B6839
:1049800003F00C03082B27D0934B9B6803F00C0318
:104990000C2B59D06368B3F5803F5BD0B3F5A02FE3
:1049A0005ED08D4B1A6822F480321A601A6822F4A5
:1049B00080221A606368002B5CD0FDF727FB054658
:1049C000854B1B6813F4003F14D1FDF71FFB401B00
:1049D0006428F5D90320CCE17F4B5B6813F4800F8A
:1049E000D2D07D4B1B6813F4003F03D06368002BCB
:1049F00000F0BA81236813F0020F60D0764B9B68F9
:104A000013F00C0F4AD0744B9B6803F00C03082B77
:104A10003FD0714B9B6803F00C030C2B69D0E3680B
:104A2000002B75D06D4B01221A60FDF7EFFA054699
:104A3000694B1B6813F0020F61D1FDF7E7FA401BC9
:104A40000228F5D9032094E1634B5B6813F4800FCF
:104A5000A0D0C6E7604A136843F480331360A9E727
:104A60005D4B1A6842F480221A601A6842F4803260
:104A70001A609FE7FDF7CAFA0546574B1B6813F407
:104A8000003FB7D0FDF7C2FA401B6428F5D90320D8
:104A90006FE1514B5B6813F4800FBAD14E4B1B682A
:104AA00013F0020F03D0E368012B40F05F814A4A04
:104AB000136823F0F803216943EAC10313602368F4
:104AC00013F0080F49D06369002B33D0434B012208
:104AD000C3F8802EFDF79AFA05463F4B5B6F13F043
:104AE000020F3AD1FDF792FA401B0228F5D90320B4
:104AF0003FE1394B5B6813F4800F90D1CEE7364A23
:104B0000136823F0F803216943EAC1031360D6E771
:104B1000324B00221A60FDF779FA05462E4B1B68CE
:104B200013F0020FCBD0FDF771FA401B0228F5D924
:104B300003201EE1294B0022C3F8802EFDF766FA00
:104B40000546254B5B6F13F0020F06D0FDF75EFAAA
:104B5000401B0228F5D903200BE1236813F0040F52
:104B600076D01D4B1B6C13F0805F33D10023019373
:104B7000194B1A6C42F080521A641B6C03F080537C
:104B80000193019B0125164B1B6813F4807F29D0EC
:104B9000A368012B3AD0052B3ED00F4B1A6F22F0A1
:104BA00001021A671A6F22F004021A67A368002B29
:104BB0003CD0FDF72BFA0646074B1B6F13F0020F94
:104BC00045D1FDF723FA801B41F288339842F3D98F
:104BD0000320CEE00025D6E700380240000047421F
:104BE000007000406B4A136843F480731360FDF754
:104BF0000DFA0646674B1B6813F4807FC8D1FDF79A
:104C000005FA801B0228F5D90320B2E0624A136F2F
:104C100043F001031367C9E75F4B1A6F42F00402C8
:104C20001A671A6F42F001021A67BFE7FDF7EEF943
:104C30000646594B1B6F13F0020F08D0FDF7E6F93B
:104C4000801B41F288339842F3D9032091E0EDB9FB
:104C5000A369002B00F08C804F4A926802F00C028E
:104C6000082A54D0022B17D04C4B00221A66FDF7AD
:104C7000CDF90446484B1B6813F0007F45D0FDF783
:104C8000C5F9001B0228F5D9032072E0424A136CD3
:104C900023F080531364DBE7404B00221A66FDF7D4
:104CA000B5F905463C4B1B6813F0007F06D0FDF7B5
:104CB000ADF9401B0228F5D903205AE0E369226AC6
:104CC0001343626A43EA8213A26A5208013A43EA32
:104CD0000243E26A43EA0263226B43EA02732E4A0A
:104CE00053602E4B01221A66FDF790F904462A4BB9
:104CF0001B6813F0007F06D1FDF788F9001B02281E
:104D0000F5D9032035E0002033E0002031E0012B0D
:104D100031D0214B5B6803F48001E26991422CD1D0
:104D200003F03F02216A8A4229D1616A47F6C072C4
:104D30001A40B2EB811F24D103F44031A26A520819
:104D4000013AB1EB024F1ED103F07062E16AB2EB9F
:104D5000016F1AD103F0E043226BB3EB027F16D14F
:104D6000002006E001207047012002E0012000E061
:104D7000002002B070BD0120FBE70120F9E701200F
:104D8000F7E70120F5E70120F3E70120F1E7012033
:104D9000EFE700BF007000400038024000004742CB
:104DA00000285AD010B50446436A33B94368B3F5B6
:104DB000827F05D00023C36102E0002303614361C9
:104DC0000023A36294F85130002B40D0022384F8D2
:104DD00051302268136823F040031360636803F4C2
:104DE0008273A26802F404421343E26802F4006290
:104DF0001343226902F002021343626902F00102C6
:104E00001343A26902F400721343E26902F038020C
:104E10001343226A02F080021343A26A02F4005292
:104E2000216813430B60638B03F00403626A02F092
:104E30001002216813434B602268D36923F4006396
:104E4000D36100206065012384F8513010BD84F8DF
:104E500050302046FCF74EFDB8E70120704710B4F3
:104E6000036A046A24F001040462846924F0F00CEB
:104E70004CEA021223F00A030B43826103625DF8DD
:104E8000044B704710B4036A046A24F010040462EF
:104E9000846924F4704C4CEA023223F0A00343EA04
:104EA0000113826103625DF8044B7047836823F04D
:104EB00070030B4343F007038360704790F83D3065
:104EC000DBB2012B37D1022380F83D300268D36872
:104ED00043F00103D3600368194A934220D0B3F131
:104EE000804F1DD0A2F57C42934219D002F580621A
:104EF000934215D002F58062934211D002F57842B8
:104F000093420DD002F57052934209D0A2F594322B
:104F1000934205D01A6842F001021A6000207047DF
:104F20009A6802F00702062A07D01A6842F00102C6
:104F30001A6000207047012070470020704700BFB2
:104F400000000140704770477047704770B50446D5
:104F50000368DE681D6915F0020F10D016F0020F0D
:104F60000DD06FF002021A610123037703689B6979
:104F700013F0030F5ED0FFF7E6FF0023237715F051
:104F8000040F12D016F0040F0FD023686FF0040244
:104F90001A610223237723689B6913F4407F4FD063
:104FA0002046FFF7D0FF0023237715F0080F12D01B
:104FB00016F0080F0FD023686FF008021A6104235F
:104FC00023772368DB6913F0030F40D02046FFF7F7
:104FD000BAFF0023237715F0100F12D016F0100F30
:104FE0000FD023686FF010021A610823237723681B
:104FF000DB6913F4407F31D02046FFF7A4FF002384
:10500000237715F0010F02D016F0010F2DD115F006
:10501000800F02D016F0800F2FD115F0400F02D074
:1050200016F0400F31D115F0200F02D016F0200FEE
:1050300033D170BDFFF786FF2046FFF785FF9CE761
:105040002046FFF77FFF2046FFF77EFFABE72046B5
:10505000FFF778FF2046FFF777FFBAE72046FFF714
:1050600071FF2046FFF770FFC9E723686FF0010268
:105070001A612046FCF774FBC9E723686FF08002D1
:105080001A61204600F079F9C7E723686FF0400203
:105090001A612046FFF759FFC5E723686FF0200229
:1050A0001A61204600F068F9C3E700000368324A3D
:1050B000904212D0B0F1804F0FD0A2F57C429042C6
:1050C0000BD002F58062904207D002F580629042D8
:1050D00003D002F57842904203D123F070034A686E
:1050E0001343254A90422AD0B0F1804F27D0A2F531
:1050F0007C42904223D002F5806290421FD002F59C
:10510000806290421BD002F57842904217D002F59F
:105110007052904213D002F5806290420FD002F597
:10512000806290420BD0A2F59832904207D002F5EF
:105130008062904203D002F58062904203D123F452
:105140004073CA68134323F080034A6913438A6893
:10515000C2620A688262084A904203D002F5806205
:10516000904201D10A690263026842F004020260BF
:1051700001224261036070470000014040B310B556
:10518000044690F83D30F3B1022384F83D302146C7
:1051900051F8040BFFF78AFF012384F8463084F8A6
:1051A0003E3084F83F3084F8403084F8413084F851
:1051B000423084F8433084F8443084F8453084F831
:1051C0003D30002010BD80F83C30FCF759FDDBE796
:1051D0000120704710B4846824F47F4C42EA032213
:1051E0000A4342EA0C0282605DF8044B704790F873
:1051F0003C30012B78D010B50446012380F83C30B8
:10520000022380F83D300268936823F47F4323F043
:10521000770393600B68602B4CD023D8402B54D07D
:1052200011D8202B03D00AD80BB1102B05D1194669
:105230002068FFF73BFE002028E0012026E0302B0D
:10524000F5D0012022E0502B0AD1CA6849680068D5
:10525000FFF705FE50212068FFF728FE002015E02B
:10526000012013E0B3F5805F3AD0B3F5005F14D0AE
:10527000702B37D1CB684A6889680068FFF7AAFFAE
:105280002268936843F0770393600020012384F839
:105290003D30002384F83C3010BDCB684A688968F3
:1052A0000068FFF797FF2268936843F48043936098
:1052B0000020EBE7CA6849680068FFF7E3FD60215A
:1052C0002068FFF7F3FD0020E0E7CA68496800683E
:1052D000FFF7C5FD40212068FFF7E8FD0020D5E776
:1052E0000020D3E70120D1E70220704790F83C204E
:1052F000012A3DD010B40346012280F83C2002224E
:1053000080F83D2002685068946820F0700C0868AE
:1053100040EA0C0050601A68164882421AD0B2F176
:10532000804F17D0A0F57C40824213D000F58060FA
:1053300082420FD000F5806082420BD000F57840A9
:10534000824207D000F57050824203D0A0F594301D
:10535000824204D124F080044968214391600122F3
:1053600083F83D20002083F83C005DF8044B704733
:10537000022070470000014070477047026802F148
:105380000C0353E8003F23F0C0030C3242E8003125
:105390000029F3D1202380F841307047026802F1E0
:1053A0000C0353E8003F23F490730C3242E80031C1
:1053B0000029F3D1026802F1140353E8003F23F0FF
:1053C0000103143242E800310029F3D1036B012BB1
:1053D00005D0202380F84230002303637047026821
:1053E00002F10C0353E8003F23F010030C3242E8B3
:1053F00000310029F3D1ECE790F84130DBB2212BEA
:1054000001D0022070478368B3F5805F17D0036A2C
:105410005A1C02621A7803685A60C38C9BB2013B23
:105420009BB2C3844BB90268D36823F08003D36076
:105430000268D36843F04003D360002070470369DB
:10544000002BE4D1036A1B880268C3F3080353608E
:10545000036A02330362E0E710B504460268136989
:1054600023F44053C1680B431361836802691A43F4
:1054700043691A43C3691A430168CB6823F416438E
:1054800023F00C031343CB600268536923F4407389
:1054900081690B4353610368314A934206D002F598
:1054A0008062934202D0FEF74DFF01E0FEF75AFF03
:1054B000E369B3F5004F29D00021031849411B18B7
:1054C00041F10001C90041EA5371DB00181863681B
:1054D0004FEA83024FEA937341F10001FBF78AFC24
:1054E000204AA2FB00314909642303FB11031B017D
:1054F0003233A2FB03235B0903F0F00202EB01123B
:1055000003F00F03216813448B6010BD00230218C1
:1055100043EB0301121841F10001C90041EA527145
:10552000D200101841F10001626892185B41FBF74C
:1055300061FC0C4AA2FB00314909642303FB1103FF
:10554000DB003233A2FB03235B095A0002F4F8723A
:1055500002EB011203F00703216813448B60D4E7C8
:10556000001001401F85EB5160B310B5044690F860
:10557000413013B3242384F841302268D36823F4E4
:105580000053D3602046FFF767FF2268136923F4B6
:10559000904313612268536923F02A035361226800
:1055A000D36843F40053D36000206064202384F860
:1055B000413084F84230606310BD80F84030FCF721
:1055C000C5FBD7E701207047704708B50168CA6876
:1055D00022F04002CA60202280F84120FFF7F4FF49
:1055E000002008BD7047704710B5846B23685A6966
:1055F00094F84130DBB2212B10D023685A6902F0B5
:10560000400294F84230DBB2222B11D0636C43F09D
:1056100010036364204605F0B3FC10BD02F0800265
:10562000002AEAD00023E3842046FFF7A7FEE4E740
:10563000002AEBD00023E3852046FFF7AFFEE5E725
:1056400008B5806B0023C38505F09AFC08BD90F86F
:105650004230DBB2222B69D18368B3F5805F4FD033
:10566000826AB3F5805F04D0002B56D10369002B0A
:1056700053D103685B681370836A01338362C38DFF
:105680009BB2013B9BB2C385002B51D100B583B0C7
:105690000268D36823F02003D3600268D36823F440
:1056A0008073D3600268536923F0010353612023A0
:1056B00080F8423000234363036B012B33D1002376
:1056C0000363026802F10C0353E8003F23F0100368
:1056D0000C3242E800310029F3D103681A6812F055
:1056E000100F06D0002201921A6801925B680193A4
:1056F000019B818D05F00AFC002003B05DF804FBDE
:105700000269002AACD1826A03685B68C3F30803AC
:105710001380836A02338362B1E703685B6803F036
:105720007F031370A8E7FFF75DFFE5E702207047EE
:105730000020704710B582B0044602681368D06834
:10574000516913F00F0F09D113F0200F0CD010F096
:10575000200F09D02046FFF77AFF16E011F0010173
:1057600015D110F4907F12D1216B012979D013F05B
:10577000800F03D010F0800F40F0218113F0400F14
:1057800003D010F0400F40F01E8102B010BD13F0A6
:10579000010F06D010F4807F03D0626C42F001024A
:1057A000626413F0040F04D019B1626C42F002027B
:1057B000626413F0020F04D019B1626C42F004026B
:1057C000626413F0080F07D010F0200F00D119B158
:1057D000626C42F008026264626C002AD5D013F059
:1057E000200F02D010F0200F29D123685B6903F04D
:1057F0004003626C12F0080F00D163B32046FFF73C
:10580000CDFD23685B6913F0400F20D0226802F1C0
:10581000140353E8003F23F04003143242E8003100
:105820000029F3D1E36B73B1694A1A65E06BFDF7A8
:1058300076FB0028A9D0E06B036D9847A5E72046CA
:10584000FFF705FFD1E7204605F09AFB9DE72046CC
:1058500005F096FB99E7204605F092FB0023636470
:1058600093E713F0100F82D010F0100F3FF47FAFCA
:10587000002301931368019353680193019B5369BB
:1058800013F0400F5FD0E26B13685B689BB2002B94
:105890004AD0A18D994247D9E385D369B3F5807F7A
:1058A00037D0226802F10C0353E8003F23F48073E1
:1058B0000C3242E800310029F3D1226802F11403CE
:1058C00053E8003F23F00103143242E8003100297D
:1058D000F3D1226802F1140353E8003F23F04003A0
:1058E000143242E800310029F3D1202384F84230F9
:1058F00000232363226802F10C0353E8003F23F0E6
:1059000010030C3242E800310029F3D1E06BFDF7BF
:10591000BCFA02236363A18DE38D9BB2C91A89B2DD
:10592000204605F0F3FA30E7A18D99427FF42DAFC0
:10593000D369B3F5807F7FF428AF022363632046E9
:1059400005F0E4FA21E7A18DE38D9BB2C91A89B273
:10595000E38D9BB2002B3FF418AF00293FF415AF45
:10596000226802F10C0353E8003F23F490730C32D9
:1059700042E800300028F3D1226802F1140353E812
:10598000003F23F00103143242E800300028F3D135
:10599000202384F8423000232363226802F10C03A1
:1059A00053E8003F23F010030C3242E80030002897
:1059B000F3D102236363204605F0A8FAE5E620460A
:1059C000FFF71AFDE1E62046FFF7FFFDDDE600BF29
:1059D0004156000808B5806B01234363036B012B1C
:1059E00002D0FFF700FE08BD818D490805F08EFA50
:1059F000F9E708B50346806B1B681B6813F4807FCA
:105A00002BD10023C385026802F10C0353E8003F49
:105A100023F480730C3242E800310029F3D102688C
:105A200002F1140353E8003F23F00103143242E86B
:105A300000310029F3D1026802F1140353E8003F5A
:105A400023F04003143242E800310029F3D120232F
:105A500080F84230036B012B07D000234363036BB4
:105A6000012B0FD0FFF7BEFD08BD026802F10C0349
:105A700053E8003F23F010030C3242E800310029C4
:105A8000F3D1EAE7818D05F041FAEDE730B583B057
:105A9000044613468162828500224264222084F8F3
:105AA0004200E06B244DC563E06B244D0564E06B60
:105AB000234DC564E06B026520680A46011DE06B5A
:105AC000FDF7AEF900282FD10023019323681A684F
:105AD00001925B680193019B23695BB1226802F12B
